:020000040000FA
:060000009DEF1EF012004E
:0600080004EF08F01200F5
:060018000CEF08F01200DD
:061000009DEF1EF012003E
:021006001200D6
:0610080016EF08F01200D3
:02100E00BD6AB9
:021010001200CC
:061018001DEF08F01200BC
:02101E000100CF
:0C102000563D000060000000420000008F
:04102C00DACFE4FF34
:10103000E652E552E5CFDAFF1100D8CFE4FFE0CF6A
:10104000E4FFE46EDACFE4FFE2CFDAFFE9CFE4FFBA
:10105000EACFE4FFF6CFE4FFF7CFE4FFF5CFE4FFFC
:10106000F3CFE4FFF4CFE4FFFACFE4FF00EE00F0AB
:10107000100EE80403E3EECFE4FFFBD700EE14F01C
:10108000040EE80403E3EECFE4FFFBD7E652D9CF2A
:10109000E6FFE1CFD9FF020EE126F2A40CD0F294D4
:1010A0006A0EE66EE66810EC1EF0E552E5520001AD
:1010B0008951DFEC0EF0F2A05BD0010E81CFDBFF97
:1010C0000001895154E1000E8A5D000E8B594FE3F7
:1010D000000E8C5D000E8D594AE3010EDBCF9BF0B4
:1010E000DBB807D00A0EE66EE66AF20E106E3C0E12
:1010F0001AD0DBBA07D00A0EE66EE66AFC0E106E56
:101100003C0E11D0DBBC07D00A0EE66EE66A060E76
:10111000106E3D0E08D0DBBE2AD00A0EE66EE66ADF
:10112000100E106E3D0E116E126A10C0E6FFE66ED4
:1011300012C0E6FF6A0EE66E010EE66E4DEC1DF083
:10114000136E070EE15E13500A0EDF6E230EDF5C96
:1011500009E2DF50EA6A6A0FE96E010EEA22EF6ADD
:10116000DF2AF4D70001010E976FDFEC0EF0F2904A
:10117000020EE15C02E2E16AE552E16EE552E7CF80
:10118000D9FFE55200EE17F0040EE80403E3E5CFC3
:10119000EDFFFBD700EE0FF0100EE80403E3E5CF00
:1011A000EDFFFBD7E5CFFAFFE5CFF4FFE5CFF3FF87
:1011B000E5CFF5FFE5CFF7FFE5CFF6FFE5CFEAFF97
:1011C000E5CFE9FFE5CFDAFFE550E5CFE0FFE5CF7A
:1011D000D8FF10002AD8920EE66E2CEC1EF0E552D5
:1011E0006A0EE66EE66810EC1EF0E552E5524E0E11
:1011F000E66EECEC1DF0E552050EE66E48EC1EF0D6
:10120000E552000EE66EE66A98EC1DF0E552E552F6
:10121000D08EF194F28AF00E7A6EF190F286F28C12
:10122000F28E30EC13F0E6D8FCD70F0EC11202D8C4
:10123000A0EF12F0D9CFE6FFE1CFD9FF050EE126EE
:10124000010EF36E040EF3CFDBFFF00E936E800EF3
:10125000946E8B687E6A7F6AF19E7888788A788C33
:10126000788EDE6ADD6ADECF14F0DDCF15F0D8901F
:10127000155004E6230E145C000E15580EE2DECF66
:10128000E9FFDDCFEAFF6A0EE926010EEA22EF6AE6
:10129000DF2A010EE8E3DB2AE6D7DE6ADD6ADECF6D
:1012A00014F0DDCF15F0D890155004E60A0E145C4A
:1012B000000E15580EE2DECFE9FFDDCFEAFF600E2B
:1012C000E926010EEA22EF6ADF2A010EE8E3DB2AB3
:1012D000E6D70101586B596B5A6B5B6B5C6B5D6BAE
:1012E0005E6B5F6B00016B6B6C6B6D6B6E6B020109
:1012F000696B6C6B6CC26BF26CC26AF20201686B58
:1013000068C267F268C266F268C265F268C264F2D7
:1013100068C263F268C262F268C261F20001696B7E
:1013200069C068F069C067F069C066F00101576B79
:1013300057C156F157C155F157C154F157C153F137
:1013400057C152F157C151F157C150F100016A6BB9
:10135000DE6ADD6A040EF36E020EF3CFDBFF030ECE
:10136000DB6ADECF14F0DDCF15F0D890155004E61F
:10137000140E145C000E155833E2DECF14F0DDCFEE
:1013800015F00A0E1502F3CF15F01402F3CF14F086
:10139000F4501526040E1426000E152214C0E6FF84
:1013A00015C0E6FFC7EC1DF0E552E552E66EDECF54
:1013B000E9FFDDCFEAFF710EE926000EEA22E552D1
:1013C000E750EF6EDF2A010E01E3DB2AD950020F4E
:1013D000E96EDACFEAFF0A0EEE26000EED22C1D743
:1013E000050EE15C02E2E16AE552E16EE552E7CF0B
:1013F000D9FF1200D9CFE6FFE1CFD9FF0B0EE126CE
:10140000090EDB6A0A0EDB6A200E0001E76EA219E4
:10141000E8AE02D0E73402D0E750A25D02E254EF1A
:101420000EF06450020B02E054EF0EF0010158512F
:10143000591102E1000E08D058C1E9FF59C1EAFF75
:10144000EF50800B01E0010E000925E166C06AF251
:1014500067C06BF268C06CF269C06DF20001666B28
:10146000676B686B696BA051000815E2040EE66EAD
:101470006A0EE66E020EE66E010EE66EE66ED6ECC3
:101480001AF0146E050EE15E1450F3CF58F1F4CF4C
:1014900059F10001A00701015C515D1102E1000E4C
:1014A00008D05CC1E9FF5DC1EAFFEF50800B01E0AD
:1014B000010E000937E150C161F251C162F252C11F
:1014C00063F253C164F254C165F255C166F256C16C
:1014D00067F257C168F2576B57C156F157C155F1C2
:1014E00057C154F157C153F157C152F157C150F18F
:1014F0000001A151000816E2080EE66E610EE66ECC
:10150000020EE66E010EE66E030EE66ED6EC1AF0E3
:10151000146E050EE15E1450F3CF5CF1F4CF5DF173
:101520000001A10701015A515B1102E1000E08D030
:101530005AC1E9FF5BC1EAFFEF50800B01E0010EE9
:1015400000091DE16AC069F200016A6B9F51000841
:1015500016E2010EE66E690EE66E020EE66E010EF2
:10156000E66E020EE66ED6EC1AF0146E050EE15E23
:101570001450F3CF5AF1F4CF5BF100019F07000143
:101580006B516C1102E1000E08D06BC0E9FF6CC01A
:10159000EAFFEF50800B01E0010E000901E084D367
:1015A000DE6ADD6ADECF14F0DDCF15F0D89015507D
:1015B00004E6400E145C000E15580EE2DECFE9FF83
:1015C000DDCFEAFFB60EE926020EEA22EF6ADF2A35
:1015D000010EE8E3DB2AE6D702017651610A01E158
:1015E0001FD3010A01E1ECD2330A01E1C2D2010AA0
:1015F00001E18BD2030A01E171D2010A01E13AD281
:10160000110A01E123D2010A01E102D2C30A01E178
:10161000A3D1010A01E145D1030A01E1DED0010AAB
:1016200001E180D0D60A01E02CD3560EB66F600ED1
:10163000E66E000EE66E8AEC1DF0E552E552070EEE
:10164000F3CFDBFF146ADB50E76E1418E8AE02D06C
:10165000E73402D0E750145C51E2070EDBCF15F0FF
:101660003E0EE76E1518E8AE02D0153403D0E750F1
:10167000D880155443E3DE6ADD6ADECF14F0DDCF97
:1016800015F0070EDBCF16F0176A16BE1768155057
:101690001718E8AE02D0173404D01650145C175057
:1016A00015581EE2DECFE9FFDDCFEAFF600EE92626
:1016B000000EEA22EF50E66EDECFE9FFDDCFEAFF53
:1016C000010EE926000EEA22B60EE926020EEA22F3
:1016D000E552E750EF6EDF2A010ECFE3DB2ACDD7CC
:1016E000DECFE9FFDDCFEAFF010EE926000EEA2298
:1016F000B60EE926020EEA22EF6A02D00201B76BAB
:1017000000016D516E1102E1000E08D06DC0E9FFBD
:101710006EC0EAFFEF50800B01E0010E000901E00E
:10172000B0D239D277517825C80842E3010E146E41
:101730007851D88014543CE378513D0839E3DE6A8F
:10174000DD6ADECF14F0DDCF15F002017851000123
:1017500015AE02D0D89003D0145C000E155825E2C7
:10176000DECFE9FFDDCFEAFF030EE926000EEA2215
:10177000760EE926020EEA22EF50E66E020177515C
:10178000166E176ADE501624146EDD501720156E83
:1017900014C0E6FFE66ED5EC1DF0E552E552E552C9
:1017A000DF2A010ECEE3DB2ACCD70201B76B01D0D2
:1017B000B769800EB66F00016D516E1102E1000E27
:1017C00008D06DC0E9FF6EC0EAFFEF50800B01E06A
:1017D000010E000901E055D2DED1010E146E7751E1
:1017E000D880145449E37751140846E30A0E785D13
:1017F00043E1DE6ADD6ADECF14F0DDCF15F00201D1
:101800007851000115AE02D0D89003D0145C000EC0
:10181000155827E2DECFE9FFDDCFEAFF030EE92608
:10182000000EEA22760EE926020EEA22EF50E66E5C
:10183000020177050A0DF350166E176ADE50F32485
:10184000146EDD501720156E14C0E6FFE66ED5EC61
:101850001DF0E552E552E552DF2A010ECCE3DB2A0A
:10186000CAD70201B76B7705EA6A710FE96E000EFD
:10187000EA227DC2EFFF01D0B769810EB66F000189
:101880006D516E1102E1000E08D06DC0E9FF6EC00F
:10189000EAFFEF50800B01E0010E000901E0F1D1F9
:1018A0007AD1820EB66F77517825C80842E3010ECF
:1018B000146E7851D88014543CE378513D0839E3D4
:1018C00078C2B7F2DE6ADD6ADECF14F0DDCF15F044
:1018D00002017851000115AE02D0D89003D0145CFB
:1018E000000E155827E202017751166E176ADE5076
:1018F0001624146EDD501720156E14C0E6FFE66E38
:10190000C7EC1DF0E552E552E66EDECFE9FFDDCF14
:10191000EAFF020EE926000EEA22B60EE926020EC2
:10192000EA22E552E750EF6EDF2A010ECDE3DB2A13
:10193000CBD7B76900016D516E1102E1000E08D0DE
:101940006DC0E9FF6EC0EAFFEF50800B01E0010EB1
:10195000000901E096D11FD1830EB66F010E146EFF
:101960007751D880145441E3775114083EE30A0EAE
:10197000785D3BE178C2B7F2DE6ADD6ADECF14F053
:10198000DDCF15F002017851000115AE02D0D890DC
:1019900003D0145C000E155829E2020177050A0DE8
:1019A000F350166E176ADE50F324146EDD501720C4
:1019B000156E14C0E6FFE66EC7EC1DF0E552E55269
:1019C000E66EDECFE9FFDDCFEAFF020EE926000E6C
:1019D000EA22B60EE926020EEA22E552E750EF6E41
:1019E000DF2A010ECBE3DB2AC9D7B76900016D51AD
:1019F0006E1102E1000E08D06DC0E9FF6EC0EAFF73
:101A0000EF50800B01E0010E000901E03AD1C3D094
:101A1000400EB66FB76BB86B9BC0B9F29CC0BAF200
:101A20009DC0BBF29EC0BCF200016D516E1102E17F
:101A3000000E08D06DC0E9FF6EC0EAFFEF50800BCA
:101A400001E0010E000901E01CD1A5D0410EB66FE6
:101A500000016D516E1102E1000E08D06DC0E9FF6A
:101A60006EC0EAFFEF50800B01E0010E000901E0BB
:101A700008D191D0500EB66FDE6ADD6ADECF14F069
:101A8000DDCF15F0D890155004E6070E145C000E5B
:101A9000155812E2DECFE9FFDDCFEAFF010EE9269D
:101AA000000EEA22B60EE926020EEA22EF6ADF2ACB
:101AB000010EE4E3DB2AE2D700016D516E1102E171
:101AC000000E08D06DC0E9FF6EC0EAFFEF50800B3A
:101AD00001E0010E000901E0D4D05DD00001966B59
:101AE0000201510EB66F00016D516E1102E1000E40
:101AF00008D06DC0E9FF6EC0EAFFEF50800B01E037
:101B0000010E000901E0BDD046D0520EB66FDE6A6C
:101B1000DD6ADECF14F0DDCF15F0D890155004E665
:101B2000230E145C000E155812E2DECFE9FFDDCF64
:101B3000EAFF010EE926000EEA22B60EE926020EA1
:101B4000EA22EF6ADF2A010EE4E3DB2AE2D7000192
:101B50006D516E1102E1000E08D06DC0E9FF6EC03C
:101B6000EAFFEF50800B01E0010E000901E089D08F
:101B700012D0530EB66F00016D516E1102E1000ECE
:101B800008D06DC0E9FF6EC0EAFFEF50800B01E0A6
:101B9000010E000976E1400EE66EB60EE66E020E0C
:101BA000E66E010EE66E040EE66ED6EC1AF0146ECA
:101BB000050EE15E1450F3CF6DF0F4CF6EF061D0FE
:101BC000600EB66F0001976BDE6ADD6ADECF14F03F
:101BD000DDCF15F0D890155004E6070E145C000E0A
:101BE00015584FE2DECFE9FFDDCFEAFF010EE9260F
:101BF000000EEA22760EE926020EEA22EF50E66E89
:101C0000DECFE9FFDDCFEAFF6A0EE926010EEA2208
:101C1000E552E750EF6EDF2A010ED8E3DB2AD6D774
:101C2000610EB66F0001010E976FDE6ADD6ADECFCE
:101C300014F0DDCF15F0D890155004E6230E145C97
:101C4000000E15581EE2DECFE9FFDDCFEAFF010EE0
:101C5000E926000EEA22760EE926020EEA22EF506D
:101C6000E66EDECFE9FFDDCFEAFF6A0EE926010E60
:101C7000EA22E552E750EF6EDF2A010ED8E3DB2AB5
:101C8000D6D7400EE66E760EE66E020EE66EE66A79
:101C9000040EE66ED6EC1AF0146E050EE15E1450DA
:101CA000F3CF6BF0F4CF6CF00B0EE15C02E2E16A73
:101CB000E552E16EE552E7CFD9FF120012001200A3
:101CC000120012006DEF1CF012001E0EE66E010EE7
:101CD000E66E31EC1AF0E552E5521E0EE66E020E8B
:101CE000E66E31EC1AF0E552E5521E0EE66E030E7A
:101CF000E66E31EC1AF0E552E5521E0EE66E040E69
:101D0000E66E31EC1AF0E552E552120064840101EE
:101D1000080E8D6F070E8E6F8D07000E8E5B8D5136
:101D20008E11FAE164941200D9CFE6FFE1CFD9FF1A
:101D3000FD0EDBCF06F0FE0EDBCF07F0720E0618AD
:101D400001E1075033E0E868061802E17F0E07184A
:101D50002BE0740E061801E1075024E0750E0618FA
:101D600001E107501DE0730E061801E1075016E06F
:101D7000030E061801E107500FE0020E061801E1FC
:101D8000075008E0010E061801E1075001E010D0ED
:101D90009CDF0FD099DF0DD095DF0BD091DF09D0FC
:101DA0008DDF07D08CDF05D08CDF03D0000001D0A1
:101DB00000D0010E00D0E552E7CFD9FF1200D9CFF5
:101DC000E6FFE1CFD9FF0B0EE126DE6ADD6A020EE7
:101DD000DB6A030EDB6A040EDB6A050EDB6A060EA5
:101DE000DB6A070EDB6A080EDB6A0001000ED88092
:101DF0008A55000E8B5501E263D3000ED8808C55B6
:101E0000000E8D5501E25CD3895101E0C1D0876B92
:101E1000886B986B970504E1090E6AC1DBFF07D058
:101E20000F0E01016A15E76E090EE7CFDBFFDB50ED
:101E300001E146D30001020E896F970505E16BC1F0
:101E400093F06CC194F009D06AC193F0F00E931531
:101E5000E840E8403F0B936F946B07EC08F0090EE5
:101E6000DB50050809E1380E0001935D05E1B40E71
:101E7000996F9A6B590E05D09E0E0001996F9A6B5F
:101E80004E0EE66EECEC1DF0E552090EDB040DE1A2
:101E9000200E00018A6F8B6B100E8C6F8D6B040E01
:101EA0008F6F906F916F0C0E4DD0090EDB500208B2
:101EB0000DE15A0E00018A6F8B6B2D0E8C6F8D6BAE
:101EC000050E8F6F906F916F100E3CD0090EDB5096
:101ED00003080DE1180E00018A6F8B6B060E8C6FE4
:101EE0008D6B8F6F906F0C0E916F060E2BD0090EBD
:101EF000DB5004080DE100018A6B8B6B8C6B8D6BE2
:101F0000040E8F6F080E906F040E916F140E1AD08E
:101F1000090EDB50050806E12C0E00018A6F8B6B61
:101F2000160E09D0090EDB5006080EE11E0E000148
:101F30008A6F8B6B5A0E8C6F8D6B040E8F6F906F48
:101F4000916F0D0E926FBCD2020EDB6A030EDB6A3C
:101F5000020EDBCF14F0030EDBCF15F0D890155036
:101F600004E6230E145C000E155801E3B6D1020EF0
:101F7000DBCFE9FF030EDBCFEAFF6A0EE926010E95
:101F8000EA22EF6A020EDB2A030EE2E3DB2AE0D745
:101F9000020E895D01E03DD1970505E1090E6AC198
:101FA000DBFF030E08D00F0E01016A15E76E090E64
:101FB000E7CFDBFF010EF36E0A0EF3CFDBFF080E57
:101FC000146E156A87C006F088C007F00B6E15C046
:101FD0000CF063EC1EF0040E06C0DBFF050E07C01C
:101FE000DBFF87C014F00001156A070E1416060EF9
:101FF00014C0DBFF070E15C0DBFF00019351146E08
:10200000156A1450871905E11550881902E1945199
:1020100006E0FF0ED8808755000E885507E2F00EC7
:10202000F36E080EF3CFDBFF982B5AD09351146E4A
:10203000156A145087190CE11550881909E194515B
:10204000000806E2030EF36E080EF3CFDBFF48D064
:102050000A0EDB50E76E040EDBCF14F0050EDBCF6B
:1020600015F0E7501426000E1522145C000E1558CA
:1020700035E30A0EDB50E76E040EDBCF16F0050EDB
:10208000DBCF17F0E7501626000E1722230E165C42
:10209000000E175823E2060EDBCF14F00A0EDB50B9
:1020A000E76E040EDBCFE9FF050EDBCFEAFFE7505A
:1020B000E926000EEA226A0EE926010EEA22EF5016
:1020C00014C0E7FFE75204E0E8427F0BE706FCE1BB
:1020D000010BE76E080EE7CFDBFF02D0080EDB68CE
:1020E000DB5006E100018F518A6F8B6B905112D04B
:1020F000080EDB0406E1000191518A6F8B6B92514F
:1021000009D0080EDB50F00808E100018F518A6FFA
:102110008B6BC80E8C6F8D6B19D0080EDB500308CB
:102120000BE100018F518A6F8B6B040E8C6F010ED7
:102130008D6F080E896F0AD0080EDB50FF0806E18C
:1021400000018A6B8B6B8C6B8D6B896B090EDB507E
:1021500003080DE100019305146E156AE850871914
:1021600006E11550881903E1C80E8C6F8D6B090EBE
:10217000DB0411E100019351146E156A14508719A4
:102180000AE11550881907E1980502E1420E01D0D5
:10219000C80E8C6F8D6B090EDB0404E1020E00018A
:1021A000985D2EE3F00EF36E080EDBCFF4FFF350D4
:1021B000F45C26E3020EDB6A030EDB6A020EDBCF61
:1021C00014F0030EDBCF15F0D890155004E6230E63
:1021D000145C000E155811E2020EDBCFE9FF030E6E
:1021E000DBCFEAFF6A0EE926010EEA22EF6A020E51
:1021F000DB2A030EE3E3DB2AE1D70001896B60D120
:10220000080EDB5001E158D1080EDB0401E058D183
:1022100053D1080E895D68E1100E896F970505E1BD
:10222000090E6AC1DBFF030E08D00F0E01016A150B
:10223000E76E090EE7CFDBFF010EF36E0A0EF3CF58
:10224000DBFF090EDB0406E1200E00018A6F8B6BB9
:10225000100E1DD0090EDB50020806E15A0E0001D7
:102260008A6F8B6B2D0E13D0090EDB50050806E12B
:102270002C0E00018A6F8B6B160E09D0090EDB50F5
:10228000060808E11E0E00018A6F8B6B5A0E8C6FD8
:102290008D6B16D1020EDB6A030EDB6A020EDBCFFA
:1022A00014F0030EDBCF15F0D890155004E6230E82
:1022B000145C000E155811E2020EDBCFE9FF030E8D
:1022C000DBCFEAFF6A0EE926010EEA22EF6A020E70
:1022D000DB2A030EE3E3DB2AE1D70001896B936B72
:1022E000946B090EDB6AECD0100E895D01E0E8D03A
:1022F000970505E1090E6AC1DBFF030E08D00F0E3A
:1023000001016A15E76E090EE7CFDBFF010EF36EE0
:102310000A0EF3CFDBFF080E146E156A87C006F0B5
:1023200088C007F00B6E15C00CF063EC1EF0040EB5
:1023300006C0DBFF050E07C0DBFF87C014F00001FD
:10234000156A070E1416060E14C0DBFF070E15C023
:10235000DBFF000193519425146E156AE85087192C
:1023600002E11550881906E0FF0ED8808755000E4F
:10237000885506E2F00EF36E080EF3CFDBFF48D06F
:102380000A0EDB50E76E040EDBCF14F0050EDBCF38
:1023900015F0E7501426000E1522145C000E155897
:1023A00035E30A0EDB50E76E040EDBCF16F0050EA8
:1023B000DBCF17F0E7501626000E1722230E165C0F
:1023C000000E175823E2060EDBCF14F00A0EDB5086
:1023D000E76E040EDBCFE9FF050EDBCFEAFFE75027
:1023E000E926000EEA226A0EE926010EEA22EF50E3
:1023F00014C0E7FFE75204E0E8427F0BE706FCE188
:10240000010BE76E080EE7CFDBFF02D0080EDB689A
:10241000DB5006E100018F518A6F8B6B905112D017
:10242000080EDB0406E1000191518A6F8B6B92511B
:1024300009D0080EDB50F00808E100018F518A6FC7
:102440008B6BC80E8C6F8D6B0AD0080EDB50FF08AB
:1024500006E100018A6B8B6B8C6B8D6B896BF00EC8
:10246000F36E080EDBCFF4FFF350F45C25E3020EAD
:10247000DB6A030EDB6A020EDBCF14F0030EDBCF48
:1024800015F0D890155004E6230E145C000E155874
:1024900011E2020EDBCFE9FF030EDBCFEAFF6A0E8B
:1024A000E926010EEA22EF6A020EDB2A030EE3E3BD
:1024B000DB2AE1D70001896B0001872B000E8823FE
:1024C0000001000ED8808A55000E8B550DE299C090
:1024D000E6FF9AC0E6FF98EC1DF0E552E5520001D8
:1024E0008A07000E8B5B19D0000ED8808C55000E29
:1024F0008D550CE2000EE66EE66A98EC1DF0E55292
:10250000E55200018C07000E8D5B07D0000EE66ED1
:10251000E66A98EC1DF0E552E552DECF14F0DDCF0F
:1025200015F014C0F3FF15C0F4FF0B0EE15C02E2DE
:10253000E16AE552E16EE552E7CFD9FF12001200E1
:10254000D9CFE6FFE1CFD9FFE652A0940F015F6B30
:10255000626A536B040EE66EE66AE66A540EE66E35
:102560000F0EE66E70EC1DF0146E050EE15E145059
:10257000160E616E0F019F0E5B6F7B0E606EDF6A41
:10258000DF50146E156A140E145C000E155810E21C
:10259000DF50040DF3CFE9FFF4CFEAFF000EE92688
:1025A000020EEA22EE6AEE6AEE6AEE6ADF2AE8D7E7
:1025B000648C0F015C6B6498649C62A607D0629681
:1025C0000001C16BC66BC76BC86BF7D70001010E6A
:1025D000DE6FDF6FE06BE16BCE6BDF6A050EDF5CF9
:1025E00026E2EA6ADF34FE0BEA36E96EB30EE9262C
:1025F000000EEA22EE6AED6AEA6ADF34FE0BEA3682
:10260000E96EA90EE926000EEA22EE6AED6ADF50B5
:10261000EA6AD20FE96E000EEA22EF6ADF50EA6A38
:10262000D70FE96E000EEA22EF6ADF2AD7D7000142
:10263000080EB36F020EB46F0F01160E536F020136
:10264000500E026F020E036F080E016F840E006FB2
:102650000001A36BA26BE552E552E7CFD9FF120050
:10266000D9CFE6FFE1CFD9FFE6520001A25110E138
:10267000646A606A160E616E0F019F0E5B6F7B0EBF
:10268000606E64B602D06486FCD70001010EA26FB2
:10269000A20508E164BA06D0626A606A6080608858
:1026A000020EA26F6250040B05E06050040B02E0C2
:1026B0006294C0D864B250D06250010B08E0605000
:1026C000010B05E03DDF0001040EA26F6290625035
:1026D000100B05E06050100B02E097D8629862ACD6
:1026E00012D060AC0FD0010EE66EE66A000EE66E08
:1026F000E66A730EE66EE66A94EC0EF0146E060E51
:10270000E15E1450629C6250200B04E06050200B8C
:1027100001E061D86250020B14E06050020B11E03E
:10272000010EE66EE66A000EE66EE66AE6687F0E69
:10273000E66E94EC0EF0146E060EE15E14500F017E
:102740005F6B040E0001E76EA219E8AE02D0E73419
:1027500002D0E750A25D02E2A19438D060A635D045
:10276000DF6A040EDF5C31E262A62FD063CFCFF0C8
:102770000001CF51780BE842E842E842D06F629600
:10278000CFB506D0D051EA6AD70FE96E000E05D05A
:10279000D051EA6AD20FE96E000EEA22EF70D051F2
:1027A00002E15FD810D0000EE66EE66ACF0EE66E4C
:1027B000000EE66E720EE66EE66A94EC0EF0146E93
:1027C000060EE15E1450DF2ACCD7A194E552E55203
:1027D000E7CFD9FF12000F0153A115D0A5C0E9FF23
:1027E000A6C0EAFFEF5080080DE1B3C0E9FFB4C016
:1027F000EAFFEF50840806E1A5C0E9FFA6C0EAFFA2
:102800008C0EEF6E5391629A12006084629864821B
:102810000001010ECE6F000EE66EE66AE66EE66A15
:10282000750EE66EE66A94EC0EF0146E060EE15E2E
:10283000145012000001CE6B000EE66EE66AE66EE2
:10284000E66A740EE66EE66A94EC0EF0146E060EFE
:10285000E15E14506492609462A402D06294FCD74A
:102860001200D9CFE6FFE1CFD9FFE652FD0E0001FD
:10287000CF1553E17E0ECF15E8407F0B040DF3CF4B
:10288000A5F0F4CFA6F0000EA527020EA623A5C042
:10289000A7F0A6C0A8F0A775A5C0E9FFA6C0EAFFEB
:1028A000EF503C0BE842E8420D0835E1DF6A080EC4
:1028B000DF5C23E2A5C0E9FFA6C0EAFF020EE9261D
:1028C000000EEA22EE50EFCFEAFFE96EEF50E66E1F
:1028D000DF50EA6A500FE96E020EEA22E552E75035
:1028E000EF6EA5C0E9FFA6C0EAFF020EE926000EC2
:1028F000EA22EE2AEF22DF2ADAD7A5C0E9FFA6C036
:10290000EAFF020EE926000EEA22500EEE6E020EDB
:10291000ED6E0DD807D03AD805D0FD0ECF150408BE
:1029200001E159D8E552E552E7CFD9FF1200000185
:10293000BD6BDD6BE06BE16BD16BBE6BB3C0E9FFD0
:10294000B4C0EAFFEF9EB375B3C0E9FFB4C0EAFFBD
:10295000EF9EB375A7C0E9FFA8C0EAFFEF9EC16B69
:10296000C26BC36BC66BC76BC86B8FD8000EE66EAD
:10297000E66AE66EE66A030EE66EE66A94EC0EF030
:10298000146E060EE15E145014EF18F0020E0001F2
:10299000BE5D02E1D4EF18F0BE6BD1511AE1A7C0C1
:1029A000E9FFA8C0EAFFEE52080EEF6EA7C0E9FFEC
:1029B000A8C0EAFF020EE926000EEA22500EEE6ED3
:1029C000020EED6EA7C0E9FFA8C0EAFF8C0EEF6E05
:1029D0001200D16B1200D9CFE6FFE1CFD9FFE6524A
:1029E000B3C0E9FFB4C0EAFFEF50400B01E0010EB5
:1029F000DF6E0001B375080EA25D0BE152C25CFFF1
:102A00000F015C5103E00001100E02D00001040E22
:102A1000A26FBE0526E1B3C0E9FFB4C0EAFF020E13
:102A2000E926000EEA22580EEE6E020EED6E5DDB18
:102A3000020E0001BD5D06E1B3C0E9FFB4C0EAFFCC
:102A4000840E0DD0DF5006E1B3C0E9FFB4C0EAFF49
:102A5000C80E05D0B3C0E9FFB4C0EAFF880EEF6E20
:102A60000FD0C6AF0CD0C951CA1107E005D0CAC0FB
:102A7000FAFF0001C951F96EFADF0001C69FBE6B73
:102A8000E552E552E7CFD9FF120002015051600B29
:102A9000E842E842E842E842E842000901E0120068
:102AA00051510C0A50E00B0A3FE00C0A31E0010AD8
:102AB00022E00B0A1EE0020A1CE0030A18E0080AE2
:102AC00010E0010A0CE00F0A08E0030A01E012001E
:102AD0000001C18F080EA26F12005DEF17F073EFB7
:102AE00019F00001A30EBF6F000EC06F0CD0BAEF3B
:102AF00017F0A4EF15F054510001BF6FC06BA40E86
:102B0000BF27000EC023C181010EC26FC18F12000A
:102B10000001C18F02015451EA6AA40FE96E000E50
:102B2000EA2252C2EFFF1200000EE66EE66AE66E7F
:102B3000E66A020EE66EE66A94EC0EF0146E060E7D
:102B4000E15E145012001200D9CFE6FFE1CFD9FFA9
:102B5000030EE1260201520510E150511F0B00093E
:102B60000CE10001C18F030E0201515D04E100017F
:102B7000010ECD6F02D00001CD6B0201525101E078
:102B800003D150511F0B020801E0FED054510F0B2E
:102B9000000901E1F9D054510F0B040801E2F4D00F
:102BA000200E0001A25D01E0EFD0C18F020154BFF1
:102BB00016D054510F0BE96EEA6AD890E936EA361E
:102BC000A90EE926000EEA22EECFDEFFEDCFDDFFF3
:102BD00054510F0BEA6AD70FE96E000E15D054510D
:102BE0000F0BE96EEA6AD890E936EA36B30EE926A9
:102BF000000EEA22EECFDEFFEDCFDDFF54510F0BCA
:102C0000EA6AD20FE96E000EEA22020EEFCFDBFF76
:102C1000D950020FE96EDACFEAFFEF50010B03E162
:102C2000000EDF9401D0DF8454BF0BD054510F0B42
:102C3000E96EEA6AD890E936EA36A90EE926000E6E
:102C40000AD054510F0BE96EEA6AD890E936EA3699
:102C5000B30EE926000EEA22DECFEEFFDDCFEDFF58
:102C6000030E515D20E1DECFE9FFDDCFEAFFEF503B
:102C7000800B11E054BF07D054510F0BEA6AD70FF5
:102C8000E96E000E06D054510F0BEA6AD20FE96EBE
:102C9000000EEA22EF82840EDECFE9FFDDCFEAFFED
:102CA000E850EF1271D0DF74DECFE9FFDDCFEAFF2D
:102CB000EF50800B1BE0DECFE9FFDDCFEAFFEF9E98
:102CC000DECFE9FFDDCFEAFFEF8C020EE66EE66AAB
:102CD000DECFE6FFDDCFE6FF050EE66EE66A94EC9A
:102CE0000EF0146E060EE15E145005D0DECFE9FF43
:102CF000DDCFEAFFEF8CDF74D950020FE96EDACF37
:102D0000EAFFEF50020B0EE1DECFE9FFDDCFEAFF75
:102D1000EF50800B32E0DECFE9FFDDCFEAFFEF506E
:102D2000040B2BE1020154BF07D054510F0BEA6A88
:102D3000D70FE96E000E06D054510F0BEA6AD20F7E
:102D4000E96E000EEA22EF923B0E146EDECFE9FF31
:102D5000DDCFEAFFE850EF16020EE66EE66ADECF40
:102D6000E6FFDDCFE6FF050EE66EE66A94EC0EF0B8
:102D7000146E060EE15E145007D03B0EDECFE9FF65
:102D8000DDCFEAFFE850EF16030EE15C02E2E16AF4
:102D9000E552E16EE552E7CFD9FF12000001DE51A6
:102DA0004DE1010EDE6FDF5149E1010EDF6F020ED2
:102DB000BE5D0DE1B3C0E9FFB4C0EAFFEE52EF6AB9
:102DC000B3C0E9FFB4C0EAFFC80EEF6E1200BE0543
:102DD00035E1D16BA5C0E9FFA6C0EAFFEE52080EAF
:102DE000EF6EA5C0E9FFA6C0EAFF020EE926000EBD
:102DF000EA22500EEE6E020EED6EA5C0E9FFA6C0EF
:102E0000EAFF840EEF6E010ED16FA7C0E9FFA8C0E4
:102E1000EAFFEE52080EEF6EA7C0E9FFA8C0EAFF76
:102E2000020EE926000EEA22500EEE6E020EED6E44
:102E3000A7C0E9FFA8C0EAFF800EEF6E12000001F4
:102E4000E06BE16B020EBE5D18E1A7C0E9FFA8C010
:102E5000EAFFEE52080EEF6EA7C0E9FFA8C0EAFF36
:102E6000020EE926000EEA22580EEE6E020EED6EFC
:102E7000A7C0E9FFA8C0EAFF1DD0C2510201565DFC
:102E80000001C3510201575904E256C2C2F057C2B1
:102E9000C3F02BD9B3C0E9FFB4C0EAFF020EE926A4
:102EA000000EEA22580EEE6E020EED6EB3C0E9FF80
:102EB000B4C0EAFFC80EEF6E1200800E0201505D32
:102EC00058E10001C00EC16F02015351030A2FE007
:102ED000010A09E0030A4BE100014E0EBF6F370EF5
:102EE000C06F120E3ED05251F66EF76AD890F63689
:102EF000F736D20EF626380EF7220900F5CFBFF0CE
:102F00000A00F5CFC0F0020E0001F76ABF25F66E89
:102F1000C051F7220800F5CFC2F0030EF76ABF25B3
:102F2000F66EC051F7220800F5CFC3F01200030E71
:102F3000525D1AE25251F66EF76AD890F636F736BD
:102F4000D40EF626380EF7220900F5CFBFF00A009E
:102F5000F5CFC0F0BFC0F6FFC0C0F7FF0800F550C6
:102F60000001C26FC36B12000001C16B12000001AF
:102F7000C16B1200D9CFE6FFE1CFD9FF020EE126E7
:102F80000201586B596B50511F0B020A11E0030AE2
:102F90000CE0010A35E10001C18F020158810001F6
:102FA000CD052EE1020158832BD00001C18F28D01E
:102FB0000001C18F020154BF0BD054510F0BE96EB9
:102FC000EA6AD890E936EA36A90EE926000E0AD058
:102FD00054510F0BE96EEA6AD890E936EA36B30E1F
:102FE000E926000EEA22EECFDEFFEDCFDDFFDECFD9
:102FF000E9FFDDCFEAFFEF50040B02E0010E586F4E
:103000000001C1AF07D0580EBF6F020EC06FC18163
:10301000020EC26F020EE15C02E2E16AE552E16E6D
:10302000E552E7CFD9FF120064980001C1BF2BD051
:10303000C6AF09D0020EBE6FE15101E100DF000111
:10304000DF6BDE6B1200A7C0E9FFA8C0EAFFEE52FB
:10305000080EEF6EA7C0E9FFA8C0EAFF020EE9263E
:10306000000EEA22500EEE6E020EED6EA7C0E9FFD2
:10307000A8C0EAFF8C0EEF6EB3C0E9FFB4C0EAFF50
:10308000840EEF6E1200020150AF0DD00001010E50
:10309000BE6FE05101E1D3DE0001DF6BDE6BDD517D
:1030A00023E1CEEF16F00001020EBE6FA7C0E9FFCC
:1030B000A8C0EAFFEE52080EEF6EA7C0E9FFA8C055
:1030C000EAFF020EE926000EEA22500EEE6E020E14
:1030D000ED6EA7C0E9FFA8C0EAFF840EEF6EDF6BBC
:1030E000DE6BDD5101E15ADE1200D9CFE6FFE1CF00
:1030F000D9FFE652080EDF6E0001C25D000EC35913
:103100000AE2C2C0DFFFBD5102E1010E03D0BD05DE
:1031100002E1020EBD6FDF50156AE850C25DC26F5A
:103120001550C359C36FB3C0E9FFB4C0EAFFEE52F4
:10313000DFCFEFFF580ECB6F020ECC6FC1B118D0AE
:10314000DF502DE0BFC0F6FFC0C0F7FFBF2B000E61
:10315000C0230800F550E66ECBC0E9FFCCC0EAFF03
:10316000CB2B000ECC23E552E750EF6EDF06E8D7FD
:10317000DF5015E0BFC0E9FFC0C0EAFFBF2B000E63
:10318000C023EF50E66ECBC0E9FFCCC0EAFFCB2BEB
:10319000000ECC23E552E750EF6EDF06E9D7E5528B
:1031A000E552E7CFD9FF1200D9CFE6FFE1CFD9FF33
:1031B000020EE126A5C0E9FFA6C0EAFFEE52EFCF5E
:1031C000DFFFDFCF14F014500001C75D000EC859B7
:1031D00002E2C7C0DFFFDF50146E156AE850C75D1A
:1031E000C76F1550C859C86F010EDB6ADF50F36E08
:1031F000010EDBCFF4FFF350F45C16E2010EDB505E
:10320000EA6A580FE96E020EEA22EF50E66EC4C079
:10321000E9FFC5C0EAFFC42B000EC523E552E75005
:10322000EF6E010EDB2AE2D7000ED880C755000EE4
:10323000C85527E2A7C0E9FFA8C0EAFFEE52080E72
:10324000EF6EA7C0E9FFA8C0EAFF020EE926000E54
:10325000EA22580EEE6E020EED6EA5C0E9FFA6C082
:10326000EAFFEF50400B06E1A7C0E9FFA8C0EAFF64
:10327000C80E05D0A7C0E9FFA8C0EAFF880EEF6E10
:1032800028D0A7C0E9FFA8C0EAFFEE52080EEF6EF3
:10329000A7C0E9FFA8C0EAFF020EE926000EEA2255
:1032A000500EEE6E020EED6EA7C0E9FFA8C0EAFF59
:1032B000840EEF6EC951CA1107E005D0CAC0FAFFEB
:1032C0000001C951F96EFADF0001C69FDD5101E12D
:1032D00065DD020EE15C02E2E16AE552E16EE55273
:1032E000E7CFD9FF1200D9CFE6FFE1CFD9FFE652F1
:1032F0000001C18F040EE66EE66AE66A540EE66EC1
:103300000F0EE66E70EC1DF0146E050EE15E1450AB
:10331000DF6ADF50146E156A140E145C000E155827
:1033200010E2DF50040DF3CFE9FFF4CFEAFF000E07
:10333000E926020EEA22EE6AEE6AEE6AEE6ADF2AF9
:10334000E8D7648C010EE66EE66AE66AA40EE66EC5
:10335000000EE66E70EC1DF0146E050EE15E14506A
:10336000649C0001080EB36F020EB46F000EA56FCF
:10337000020EA66FA5C0A7F0A86F52C2A3F0A3517A
:1033800002E1100E12D0010EE66EE66AA30EE66EA2
:10339000000EE66E010EE66EE66A94EC0EF0146E18
:1033A000060EE15E14500001200EA26FE552E552B8
:1033B000E7CFD9FF1200D9CFE6FFE1CFD9FF020E48
:1033C000E126000EDE6E020EDD6EFD0EDB50E824FF
:1033D000166EFE0EDB50040DF3501624040DF4CFD0
:1033E00015F0D9CFE9FFDACFEAFFF350EE261550FA
:1033F000ED22DECFE9FFDDCFEAFFEF9EFD0EDB50D1
:103400000AE1FE0EEA6ADB34FE0BEA36E96EA90E2B
:10341000E926000E09D0FE0EEA6ADB34FE0BEA361E
:10342000E96EB30EE926000EEA22DECFEEFFDDCF15
:10343000EDFFDECFE9FFDDCFEAFFEF9CDECFE9FF56
:10344000DDCFEAFF040EE926000EEA22EF8C020E21
:10345000E15C02E2E16AE552E16EE552E7CFD9FFB5
:103460001200D9CFE6FFE1CFD9FF020EE126FD0E13
:10347000DBA407D0E66AFE0EDBCFE6FF9CDFE55259
:10348000E552FD0EDBA208D0010EE66EFE0EDBCF8C
:10349000E6FF91DFE552E552FE0EDB50156A530F51
:1034A000146E0F0E152214C0DEFF15C0DDFFDECF37
:1034B000E9FFDDCFEAFFFD0EDBCFEFFF020EE15C9F
:1034C00002E2E16AE552E16EE552E7CFD9FF120070
:1034D000D9CFE6FFE1CFD9FF020EE126FE0EDB5089
:1034E00020E1A7C0E9FFA8C0EAFFEE52080EEF6E88
:1034F000A7C0E9FFA8C0EAFF020EE926000EEA22F3
:10350000500EEE6E020EED6EA7C0E9FFA8C0EAFFF6
:103510008C0EEF6EB3C0E9FFB4C0EAFF840EEF6E0D
:103520003BD0FD0EDB50E824166EFE0EDB50040D82
:10353000F3501624040DF3CF14F0F4CF15F0000E61
:103540001426020E152214C0DEFF15C0DDFF840E06
:10355000DECFE9FFDDCFEAFFE850EF12FD0EDB50D2
:10356000E824166EFE0EDB50040DF3501624010FF6
:10357000040DF3CF14F0F4CF15F0000E1426020E54
:10358000152214C0DEFF15C0DDFF840EDECFE9FF7B
:10359000DDCFEAFFE850EF12020EE15C02E2E16AE1
:1035A000E552E16EE552E7CFD9FF1200D9CFE6FF31
:1035B000E1CFD9FF020EE126FD0EDB500AE0FE0E40
:1035C000EA6ADB34FE0BEA36E96EB30EE926000E3A
:1035D00009D0FE0EEA6ADB34FE0BEA36E96EA90E6C
:1035E000E926000EEA22EECFDEFFEDCFDDFFD9CFD8
:1035F000E9FFDACFEAFFEE50ED1003E1F36AF46A77
:1036000044D0DECFE9FFDDCFEAFF020EE926000E4F
:10361000EA22FB0EDBCFEEFFFC0EDBCFEDFFDECFB1
:10362000E9FFDDCFEAFFEE52FA0EDBCFEFFF400EEF
:10363000DECFE9FFDDCFEAFFE850EF16880EDECFE0
:10364000E9FFDDCFEAFFE850EF12FD0EDB500AE0A4
:10365000FE0EEA6ADB34FE0BEA36E96EB30EE926AB
:10366000000E09D0FE0EEA6ADB34FE0BEA36E96E84
:10367000A90EE926000EEA22EF74DECF14F0DDCFAA
:1036800015F014C0F3FF15C0F4FF020EE15C02E276
:10369000E16AE552E16EE552E7CFD9FF1200D9CFDA
:1036A000E6FFE1CFD9FF64A84ED0FE0EEA6ADB3414
:1036B000FE0BEA36E96EB30EE926000EEA22EE5062
:1036C000EFCFEAFFE96E400EEE16EE6AEE6AEE6AA2
:1036D000FE0EEA6ADB34FE0BEA36E96EB30EE9262B
:1036E000000EEA22EE50EFCFEAFFE96EEE7CFE0E0E
:1036F000EA6ADB34FE0BEA36E96EB30EE926000E09
:10370000EA22EF74400E146EFE0EEA6ADB34FE0B02
:10371000EA36E96EB30EE926000EEA22EE50EFCF4C
:10372000EAFFE96E1450EF16FE0EEA6ADB34FE0B78
:10373000EA36E96EB30EE926000EEA22EE50EFCF2C
:0E374000EAFFE96EEF7CE552E7CFD9FF1200F9
:02374E00120166
:10375000000200000008EA221E0001000102000130
:1037600009027B00040100E03209040000010301AA
:103770000200092111010001223400070581030420
:1037800000080904010001030100000921110100E2
:1037900001221F0007058203010001090402000243
:1037A00003010100092111010001223F00070583E7
:1037B00003080008070503030800080904030002C2
:1037C00003000000092111010001221D00070584EA
:1037D000034000080705040340000805010902A191
:1037E000010901A100050919012903150025019509
:1037F00003750181029501750581010501093009F3
:103800003109381581257F750895038106C0C005EB
:103810000C0901A1011500250109E909EA750195C5
:1038200002810609E29501810695058107C005011F
:103830000906A101050719E029E715002501750111
:1038400095088102950175088103950575010508A4
:1038500019012905910295017503910395067508D3
:10386000150025E70507190029E78100C00600FFBC
:103870000901A10119012940150026FF00750895CD
:10388000408100190129409100C004030904260366
:10389000420069007400200054007200610064005E
:1038A000650020004F006E00650020004C005400B1
:1038B00044002E001E035500530042002000490022
:1038C00052002000520045004D004F0043004F00C1
:0A38D0004E0060378A388E38B43895
:0638DA00020150511F0B1A
:1038E000010801E01200060E515D4EE15351230A1A
:1038F0004BE0010A21E0030A47E15451030A15E0B5
:10390000010A0EE0030A07E0010A3EE10001720E1F
:10391000BF6F370E0ED000018B0EBF6F370E09D070
:103920000001A40EBF6F370E04D00001C40EBF6F9C
:10393000370EC06F090E24D05451030A1BE0010A50
:1039400012E0030A09E0010A1FE10001DB0EBF6F6C
:10395000370EC06F340E14D000010F0EBF6F380E3B
:10396000C06F1F0E0DD000012E0EBF6F380EC06F3E
:103970003F0E06D000016D0EBF6F380EC06F1D0EDA
:10398000C26FC36BC00EC16F02015051600BE842A1
:10399000E842E842E842E842010801E012005151E1
:1039A0000B0A26E0080A19E0090A11E0080A05E0F6
:1039B0000B0A23E0080A21E012000001EC0EBF6FA1
:1039C000000EC06F010EC26FC36BC10E0FD000019D
:1039D000800EC16F53C2ECF012000001ED0EBF6FFC
:1039E000000EC06F010EC26FC36B810EC16F12005B
:0C39F0000001800EC16F52C2EDF0120009
:0439FC001E0EF66E37
:103A0000100EF76E000EF86E00010900F550E76F1A
:103A10000900F550E86F03E1E76701D03DD00900E8
:103A2000F550E26F0900F550E36F0900F550E46FBF
:103A300009000900F550E96E0900F550EA6E090029
:103A400009000900F550E56F0900F550E66F09001F
:103A50000900F6CFE9F0F7CFEAF0F8CFEBF0E2C0DB
:103A6000F6FFE3C0F7FFE4C0F8FF0001E55302E111
:103A7000E65307E00900F550EE6EE507F8E2E607C9
:103A8000F9D7E9C0F6FFEAC0F7FFEBC0F8FF000185
:0A3A9000E707000EE85BBFD7120045
:063A9A00FB0EE3CFF6FF76
:103AA000FC0EE3CFF7FFFD0EE3CFF8FFFE0EE3CFF2
:103AB000E9FFFF0EE3CFEAFFE9CFF3FFEACFF4FF20
:103AC000F90EE35003E1FA0EE35009E0F90EE306C4
:103AD00002E2FA0EE3060900F5CFEEFFF1D712007D
:103AE000FE0EE3CFE9FFFF0EE3CFEAFFE9CFF3FFDE
:103AF000EACFF4FFFB0EE35003E1FC0EE35009E0D4
:103B0000FB0EE30602E2FC0EE306FD0EE350EE6E52
:103B1000F1D71200FE0EE3CFE9FFFF0EE3CFEAFF7D
:103B2000F36AF46AEE5203E0F34AF42AFBD7120078
:103B3000D9CFE6FFDACFE6FFE1CFD9FFE2CFDAFF58
:103B4000E652E652FC0EDBCF14F0FD0EDBCF15F093
:103B5000060ED89014361536E804FBE114C0DEFFDB
:103B600015C0DDFF010EDB50BE6EDF50E840E840BF
:103B70003F0B300B146ECF0EBD141410BD6EE5520A
:0E3B8000E552E552E5CFDAFFE7CFD9FF12009C
:023B8E00D9CF8D
:103B9000E6FFE1CFD9FFFD0EDB50A96EA66AA68035
:103BA000A850E552E7CFD9FF1200D9CFE6FFE1CF09
:103BB000D9FFFD0EDB50A96EFC0EDB50A86E040E83
:103BC000A66E550EA76EAA0EA76EA682A6B2FED747
:083BD000E552E7CFD9FF120016
:083BD800D9CFE6FFDACFE6FFCA
:103BE000E1CFD9FFE2CFDAFF0C0EBD12CA94FD0E71
:103BF000DB50CB6ECA84E552E5CFDAFFE7CFD9FFC1
:103C00001200B9B0949AB9A202D094987F90B9A446
:103C100002D094967F94B9A602D094947F96120015
:103C2000D9CFE6FFDACFE6FFE1CFD9FFE2CFDAFF67
:103C3000E652E652FC0EDBCFDEFFDBCFDDFF010EEE
:103C4000DB50D76EDF50D66EE552E552E552E5CF38
:083C5000DAFFE7CFD9FF1200F3
:083C5800D9CFE6FFDACFE6FF49
:103C6000E1CFD9FFE2CFDAFFFD0EDB507F0BD56E3F
:103C7000D76AD66AF294FD0EDBAE02D0F28A01D08A
:103C8000F29AD58EE552E5CFDAFFE7CFD9FF1200E1
:103C9000D9CFE6FFDACFE6FFE1CFD9FFE2CFDAFFF7
:103CA000FD0EDB50FB0BCA6ECC6A9E92FD0EDBAEA6
:103CB00002D09D8201D09D92CA84E552E5CFDAFF01
:063CC000E7CFD9FF12005E
:0A3CC600036A026A100EE76ED89040
:103CD00006360736023603360B50025C0C5003588A
:103CE00005E30B50025E0C50035A062AE72EF0D76C
:023CF0001200C0
:0E3CF200013800011000B04F0AF50138000142
:103D00001000B04F02FD013800011000B04F09F65D
:0A3D1000013800011000B04F01FE61
:063D1A00000EF36E00EE46
:103D200000F0030E01D81200EA6002D0EE6AFCD760
:0A3D3000F350E9601200EE6AFCD7C0
:063D3A0011EE00F021EE85
:103D400000F0F86A0F9CFEEC1CF003EC08F0EAECC3
:063D500008F0FBD7120091
:0A3D5600322E312E30000000000074
:103D60000000000000000000000000000000000053
:103D70000000000000000000000000000000000043
:103D80000000000000000000000000000000009E95
:083D900000000000000000002B
:020000040030CA
:0100000000FF
:0100010032CC
:0100020001FC
:010003001EDE
:0100050000FA
:010006008178
:0100080003F4
:01000900C036
:01000A0003F2
:01000B00E014
:01000C0003F0
:01000D0040B2
:00000001FF
